:03000000021DC717
:0C1DC700787FE4F6D8FD758121021E0E25
:101F46003132332B3435362D3738392A2E303D2F62
:101F5600002567004552524F52004552524F5200DB
:101EB100580010FF1BB6FF1AE2FF1261FF140EFF5C
:101EC10015A3FF0E2FFF1048FF1D2050003FEEDE2F
:101ED100BE7EEDDDBD7DEBDBBB7BE7D7B777430096
:101EE1003CFF1F464100280041003BFF41003AFFF3
:041EF1004100370075
:101BB60090003BE0FFC39430401CEFD3943950169D
:101BC600900028E0FEC39410500C9000377401F08A
:101BD60074002E021C6690003BE0FB642870579050
:101BE6000035E0900038F0900036E0900039F09033
:101BF600004FE0FCA3E0FDA3E0FEA3E0FF90002978
:101C06001206B0900053E0FCA3E0FDA3E0FEA3E0C3
:101C1600FF90002D1206B0900057E0FCA3E0FDA354
:101C2600E0FEA3E0FF9000311206B0900037740783
:101C3600F0AF03021EFF90003BE0FFB47E0E900063
:101C4600377407F0900028E02400801490003BE0F1
:101C5600FFB42E169000377401F0900028E024009F
:0E1C6600121EF6900028E004F022121FB42295
:101AE20090003BE0FFC39430401BEFD39439501574
:101AF200900028E0FEC39410500B9000377401F060
:101B020074002E806E90003BE0FF642B6005EF6452
:101B12002D70079000377402801C90003BE0642A0D
:101B220070079000377403800D90003BE0642F70C3
:101B32002E9000377404F07B017A0079009000281F
:101B4200E0FD7C00E4900060F0A3F0120BD7E4907B
:101B52000028F090003BE0FF900035F0021EFF905D
:101B6200003BE0FFB42E169000377401F09000287D
:101B7200E02400121EF6900028E004F02290003BC0
:101B8200E0643D702B900037F07B017A0079009081
:101B92000028E0FD7C00E4900060F0A3F0120BD777
:101BA200E4900028F090003BE0FF121EFF021E535B
:041BB200121FB42228
:1012610090003BE0FFC39430401CEFD394395016FB
:10127100900028E0FEC39410500C9000377402F0E7
:1012810074002E02130C90003BE0FF642B6005EF0D
:10129100642D7010120BBC12173890003BE0FF90C8
:1012A1000035803990003BE0642A70147405120BFC
:1012B100BEE4900028F090003BE0FF900036801DD6
:1012C10090003BE0642F70199000377406120BC137
:1012D100E4900028F090003BE0FF900036F002140B
:1012E1000790003BE0FFB42E0E9000377402F0909F
:1012F1000028E02400801490003BE0FFB47E1690AB
:1013010000377402F0900028E02400121EF69000CD
:1013110028E004F02290003BE0643D7016120BBE01
:10132100E4900028F090003BE0FF121EFF12173DF1
:10133100021E5390003BE0FB64287057900035E09B
:10134100900038F0900036E0900039F090004FE0C6
:10135100FCA3E0FDA3E0FEA3E0FF9000291206B08C
:10136100900053E0FCA3E0FDA3E0FEA3E0FF9000AA
:101371002D1206B0900057E0FCA3E0FDA3E0FEA310
:10138100E0FF9000311206B09000377407F0AF0310
:1013910002140790003BE06429706E120BBC121717
:1013A1003890004FE0FCA3E0FDA3E0FEA3E0FF9036
:1013B100002D1206B0900029E0FCA3E0FDA3E0FEA1
:1013C100A3E0FF90004F1206B090002DE0FCA3E0D7
:1013D100FDA3E0FEA3E0FF9000531206B0900031A0
:1013E100E0FCA3E0FDA3E0FEA3E0FF90005712069E
:1013F100B0900038E0900035F0900039E090003670
:0D140100F090003BE0FF021EFF121FB4221E
:10140E0090003BE0FFC39430401CEFD3943950164C
:10141E00900028E0FEC39410500C9000377403F037
:10142E0074002E0214A190003BE0FF642B6005EFC8
:10143E00642D70079000377402801C90003BE064AE
:10144E002A70079000377403800D90003BE0642FE4
:10145E0070179000377404120BC112173890003BAE
:10146E00E0FF900035F002159C90003BE0FFB42E9B
:10147E000E9000377403F0900028E0240080149042
:10148E00003BE0FFB47E169000377403F090002806
:10149E00E02400121EF6900028E004F02290003B9B
:1014AE00E0643D7016120BBEE4900028F090003BF5
:1014BE00E0FF121EFF12173D021E5390003BE0FB91
:1014CE0064287057900035E0900038F0900036E0B8
:1014DE00900039F090004FE0FCA3E0FDA3E0FEA3E6
:1014EE00E0FF9000291206B0900053E0FCA3E0FD4F
:1014FE00A3E0FEA3E0FF90002D1206B0900057E08F
:10150E00FCA3E0FDA3E0FEA3E0FF9000311206B0C5
:10151E009000377407F0AF0302159C90003BE06417
:10152E0029706E120BBC12173890004FE0FCA3E02E
:10153E00FDA3E0FEA3E0FF90002D1206B09000295F
:10154E00E0FCA3E0FDA3E0FEA3E0FF90004F120637
:10155E00B090002DE0FCA3E0FDA3E0FEA3E0FF9021
:10156E0000531206B0900031E0FCA3E0FDA3E0FEB4
:10157E00A3E0FF9000571206B0900038E0900035BF
:10158E00F0900039E0900036F090003BE0FF021E34
:05159E00FF121FB42242
:1015A30090003BE0FFC39430401CEFD394395016B6
:1015B300900028E0FEC39410500C9000377404F0A0
:1015C30074002E02163690003BE0FF642B6005EF9B
:1015D300642D70079000377402801C90003BE06418
:1015E3002A70079000377403800D90003BE0642F4E
:1015F30070179000377404120BC112173890003B18
:10160300E0FF900035F002173190003BE0FFB42E6D
:101613000E9000377404F0900028E02400801490AA
:10162300003BE0FFB47E169000377404F09000286E
:10163300E02400121EF6900028E004F02290003B04
:10164300E0643D7016120BBEE4900028F090003B5E
:10165300E0FF121EFF12173D021E5390003BE0FBFA
:1016630064287057900035E0900038F0900036E021
:10167300900039F090004FE0FCA3E0FDA3E0FEA34F
:10168300E0FF9000291206B0900053E0FCA3E0FDB8
:10169300A3E0FEA3E0FF90002D1206B0900057E0F8
:1016A300FCA3E0FDA3E0FEA3E0FF9000311206B02F
:1016B3009000377407F0AF0302173190003BE064EA
:1016C30029706E120BBC12173890004FE0FCA3E098
:1016D300FDA3E0FEA3E0FF90002D1206B0900029C9
:1016E300E0FCA3E0FDA3E0FEA3E0FF90004F1206A1
:1016F300B090002DE0FCA3E0FDA3E0FEA3E0FF908B
:1017030000531206B0900031E0FCA3E0FDA3E0FE1D
:10171300A3E0FF9000571206B0900038E090003528
:10172300F0900039E0900036F090003BE0FF021E9D
:05173300FF121FB422AB
:100E2F0090003BE0FFC39430401CEFD39439501631
:100E3F00900028E0FEC39410500C9000377405F01A
:100E4F0074002E020F2690003BE0FF642B6005EF2D
:100E5F00642D702F9000377402F07B017A007900B7
:100E6F00900028E0FD7C00900060E4F0A37402F095
:100E7F00120BD712187B12173D90003BE0FF90002A
:100E8F0035806690003BE0642A702C900037740523
:100E9F00F07B017A007900900028E0FD7C00900043
:100EAF0060E4F0A37402F0120BD712187B90003B92
:100EBF00E0FF900036803290003BE0642F702E9060
:100ECF0000377406F07B017A007900900028E0FD6E
:100EDF007C00900060E4F0A37402F0120BD712189C
:100EEF007B90003BE0FF900036F002104190003BFA
:100EFF00E0FFB42E0E9000377405F0900028E02428
:100F0F0000801490003BE0FFB47E1690003774050C
:100F1F00F0900028E02400121EF6900028E004F064
:100F2F002290003BE0643D7033900037F07B017AF4
:100F3F00007900900028E0FD7C00900060E4F0A3B1
:100F4F007402F0120BD7E4900028F090003BE0FF02
:100F5F00121EFF12188012173D021E5390003BE025
:100F6F00FB64287057900035E0900038F090003601
:100F7F00E0900039F090004FE0FCA3E0FDA3E0FE0D
:100F8F00A3E0FF9000291206B0900053E0FCA3E00D
:100F9F00FDA3E0FEA3E0FF90002D1206B0900057D6
:100FAF00E0FCA3E0FDA3E0FEA3E0FF9000311206FA
:100FBF00B09000377407F0AF0302104190003BE090
:100FCF0064297071120BBC12187B12173D90004FE1
:100FDF00E0FCA3E0FDA3E0FEA3E0FF9000311206CA
:100FEF00B0900029E0FCA3E0FDA3E0FEA3E0FF909A
:100FFF00004F1206B090002DE0FCA3E0FDA3E0FE31
:10100F00A3E0FF9000531206B0900031E0FCA3E084
:10101F00FDA3E0FEA3E0FF9000571206B09000384A
:10102F00E0900035F0900039E0900036F090003BF2
:09103F00E0FF021EFF121FB422A3
:1010480090003BE0FFC39430401CEFD39439501616
:10105800900028E0FEC39410500C9000377406F0FE
:1010680074002E02113F90003BE0FF642B6005EFF7
:10107800642D702F9000377402F07B017A0079009C
:10108800900028E0FD7C00900060E4F0A37402F07A
:10109800120BD712187B12173D90003BE0FF90000F
:1010A80035806690003BE0642A702C900037740508
:1010B800F07B017A007900900028E0FD7C00900028
:1010C80060E4F0A37402F0120BD712187B90003B77
:1010D800E0FF900036803290003BE0642F702E9045
:1010E80000377406F07B017A007900900028E0FD53
:1010F8007C00900060E4F0A37402F0120BD7121881
:101108007B90003BE0FF900036F002125A90003BC3
:10111800E0FFB42E0E9000377406F0900028E0240B
:1011280000801490003BE0FFB47E169000377406F0
:10113800F0900028E02400121EF6900028E004F049
:101148002290003BE0643D7033900037F07B017AD9
:10115800007900900028E0FD7C00900060E4F0A396
:101168007402F0120BD7E4900028F090003BE0FFE7
:10117800121EFF12188012173D021E5390003BE00A
:10118800FB64287057900035E0900038F0900036E6
:10119800E0900039F090004FE0FCA3E0FDA3E0FEF2
:1011A800A3E0FF9000291206B0900053E0FCA3E0F2
:1011B800FDA3E0FEA3E0FF90002D1206B0900057BB
:1011C800E0FCA3E0FDA3E0FEA3E0FF9000311206DF
:1011D800B09000377407F0AF0302125A90003BE05A
:1011E80064297071120BBC12187B12173D90004FC6
:1011F800E0FCA3E0FDA3E0FEA3E0FF9000311206AF
:10120800B0900029E0FCA3E0FDA3E0FEA3E0FF907E
:10121800004F1206B090002DE0FCA3E0FDA3E0FE15
:10122800A3E0FF9000531206B0900031E0FCA3E069
:10123800FDA3E0FEA3E0FF9000571206B09000382F
:10124800E0900035F0900039E0900036F090003BD7
:09125800E0FF021EFF121FB42288
:101D200090003BE0FFC39430401BEFD39439501533
:101D3000900028E0FEC39410500B9000377401F01F
:101D400074002E807490003BE0FB64287057900074
:101D500035E0900038F0900036E0900039F09000C7
:101D60004FE0FCA3E0FDA3E0FEA3E0FF90002912FA
:101D700006B0900053E0FCA3E0FDA3E0FEA3E0FF6B
:101D800090002D1206B0900057E0FCA3E0FDA3E008
:101D9000FEA3E0FF9000311206B09000377407F008
:101DA000AF03021EFF90003BE0FFB47E16900037A9
:101DB0007407F0900028E02400121EF6900028E03E
:071DC00004F022121FB422FF
:101F9B00121F6690003BE090003AF07B017A0079CB
:091FAB003B1219BE121F8180EAED
:101F8100900037E075F003A42410F582E43400F5E5
:0A1F910083A3E0FAA3E0F90207338E
:0B19BE0090005BEBF0A3EAF0A3E9F05F
:1019C90090005FE4F0A304F0E090005EF0E4A3F07F
:1019D900A3F075B0FF209018121FE82090123090E4
:1019E900FD90005BE0FBA3E0FAA3E0F974288034E2
:1019F900209118121FE82091123091FD90005BE0B0
:101A0900FBA3E0FAA3E0F97429801920921C121FA4
:101A1900E82092163092FD90005BE0FBA3E0FAA368
:101A2900E0F9747E120684021AD820931E121FE868
:101A39002093183093FD121FF7E4900037F09000BF
:101A490028F090003B742BF0021AD875B00FE5B05E
:101A5900640F70030219DB121FE890005EE5B0F015
:101A690075B0F0E5B064F070030219DBE045B090A1
:101A7900003BF0E490005FF0A3F090005FE0FEA36C
:101A8900E0FFC39410EE648094805043E0243FF556
:101A990082E43400F583E0FD90003BE0B50520A326
:101AA900E0FBA3E0FAA3E0F98F828E83120657FFC9
:101AB90090005BE0FBA3E0FAA3E0F9EF1206849043
:101AC9000060E004F070B390005FE004F080AB9038
:081AD9000037E07003121FF753
:011AE10022E2
:100BBC007402900037F07B017A007900900028E0F5
:0B0BCC00FD7C00900060E4F0A304F04A
:100BD70090005BEBF0A3EAF0A3E9F0A3ECF0A3ED40
:0C0BE700F090003AE064297003020E2E2A
:100BF300E4900062F0A3F0A31206BC00000000E43E
:100C0300900068F090005BE0FBA3E0FAA3E0F91228
:100C1300063E647E6003020D1E90006804F090009F
:100C230068E0FF90005EE0FCA3E0FDD39F7480F8D2
:100C3300EC648098407A90005BE0FBA3E0FAA3E0C9
:100C4300F9900068E0F582758300120657F9B42E17
:100C530019EFFBC3ED9BFDEC9400CD24FFFEED34B7
:100C6300FF900062F0A3CEF0803DE924D0FDE43490
:100C7300FFFCE4120313C004C005C006C007E4FF71
:100C8300FE7D207C41900064E0F8A3E0F9A3E0FA44
:100C9300A3E0FB1200FBD003D002D001D00012006E
:100CA3000A9000641206B0900068E004F0020C2180
:100CB300D3900063E09400900062E06480948040ED
:100CC3002E900064E0FCA3E0FDA3E0FEA3E0FFE4BC
:100CD300FBFA792078411202049000641206B09066
:100CE3000063E024FFF0900062E034FFF080C190E5
:100CF3000064E0FCA3E0FDA3E0FEA3E0FF121C7888
:100D0300C004C005C006C007900060E0FEA3E07801
:100D130002C333CE33CED8F9020E1AE4900068F042
:100D2300900068E0FF90005EE0FCA3E0FDD39F74B9
:100D330080F8EC648098407A90005BE0FBA3E0FAD3
:100D4300A3E0F9900068E0F582758300120657F975
:100D5300B42E19EFFBC3ED9BFDEC9400CD24FFFEF5
:100D6300ED34FF900062F0A3CEF0803DE924D0FD86
:100D7300E434FFFCE4120313C004C005C006C0073B
:100D8300E4FFFE7D207C41900064E0F8A3E0F9A33A
:100D9300E0FAA3E0FB1200FBD003D002D001D000A5
:100DA30012000A9000641206B0900068E004F0029A
:100DB3000D23D3900063E09400900062E06480947C
:100DC30080402E900064E0FCA3E0FDA3E0FEA3E0DE
:100DD300FFE4FBFA792078411202049000641206C2
:100DE300B0900063E024FFF0900062E034FFF080F5
:100DF300C1900064E0FCA3E0FDA3E0FEA3E0FFC01C
:100E030004C005C006C007900060E0FEA3E07802BE
:100E1300C333CE33CED8F9244FF58274003EF58325
:0B0E2300D007D006D005D0041206B0A6
:010E2E0022A1
:0E1FD9007FB87E0BEF1FAC0670011E4C70F639
:011FE70022D7
:0E1FE8007F407E1FEF1FAC0670011E4C70F68E
:011FF60022C8
:101FC8008F80C2A6C2A5121FD9D2A7121FD9C2A735
:011FD80022E6
:091EF600F582E43400F583EFF0FD
:101EFF00AD07D2A5C2A6E580B411057FC0121FC8D9
:101F0F00AF058F80D2A6C2A5D2A7121FD9C2A72212
:101F6600C2A77F38121FC87F0E121FC87F06121F16
:0B1F7600C87F01121FC87F80021FC837
:071FF700C2A77F01021FC811
:05173800E4900028F020
:10173D0078677C007D017BFF7A1F795A7E007F06DA
:10174D00120618E490006DF0A3F090004FE0FCA39A
:10175D00E0FDA3E0FEA3E0FF90005B1206B0900059
:10176D0053E0FCA3E0FDA3E0FEA3E0FF90005F12B9
:10177D0006B0900035E024D6605124FD602C24FE87
:10178D00606A2404600302186790005FE0FCA3E028
:10179D00FDA3E0FEA3E0FF90005BE0F8A3E0F9A35A
:1017AD00E0FAA3E0FB12000A807990005FE0F8A355
:1017BD00E0F9A3E0FAA3E0FB90005BE0FCA3E0FD01
:1017CD00A3E0FEA3E0FF120006805890005FE0FC4E
:1017DD00A3E0FDA3E0FEA3E0FF90005BE0F8A3E033
:1017ED00F9A3E0FAA3E0FB1200FB8037E4FFFEFD56
:1017FD00FC900053E0F8A3E0F9A3E0FAA3E0FB129C
:10180D0002A1602790005FE0F8A3E0F9A3E0FAA33E
:10181D00E0FB90005BE0FCA3E0FDA3E0FEA3E0FF96
:10182D001202049000631206B0802F121FD9121FEE
:10183D00F790006EE02467F582E43400F583E0FF55
:10184D006013121EFF90006EE004F070E490006DC6
:10185D00E004F080DCE4900037F0900063E0FCA33E
:0E186D00E0FDA3E0FEA3E0FF90004F0206B0F6
:05187B00E4900028F0DC
:1018800078677C007D017BFF7A1F79607E007F0690
:10189000120618E490006DF0A3F0900053E0FCA352
:1018A000E0FDA3E0FEA3E0FF90005B1206B0900015
:1018B00057E0FCA3E0FDA3E0FEA3E0FF90005F1271
:1018C00006B0900036E024D6605124FD602C24FE42
:1018D000606A240460030219AA90005FE0FCA3E0A0
:1018E000FDA3E0FEA3E0FF90005BE0F8A3E0F9A316
:1018F000E0FAA3E0FB12000A807990005FE0F8A311
:10190000E0F9A3E0FAA3E0FB90005BE0FCA3E0FDBC
:10191000A3E0FEA3E0FF120006805890005FE0FC09
:10192000A3E0FDA3E0FEA3E0FF90005BE0F8A3E0EE
:10193000F9A3E0FAA3E0FB1200FB8037E4FFFEFD11
:10194000FC900057E0F8A3E0F9A3E0FAA3E0FB1253
:1019500002A1602790005FE0F8A3E0F9A3E0FAA3FA
:10196000E0FB90005BE0FCA3E0FDA3E0FEA3E0FF52
:101970001202049000631206B0802F121FD9121FAA
:10198000F790006EE02467F582E43400F583E0FF11
:101990006013121EFF90006EE004F070E490006D82
:1019A000E004F080DCE4900037F0900063E0FCA3FA
:0E19B000E0FDA3E0FEA3E0FF9000530206B0AE
:101E530090004FE0FCA3E0FDA3E0FEA3E0FF9000B1
:101E63007E74FFF0A3741FF0A37457F0A31206B09F
:101E73007B017A00795B12079EE4FBAF030B745B73
:101E83002FF582E43400F583E070F07FCF121FC892
:101E93007F04121FC81BAF031BEF6011745B2BF58C
:0D1EA30082E43400F583E0FF121EFF80E9A9
:011EB000220F
:101FB400E4FFB2A5E4FE000EEEB4FAFA0FEFB46447
:031FC400F1D2A5B2
:011FC70022F7
:10000300020381E86480F8E933E83360110460F0A7
:10001300ED33EC337009E8FCE9FDEAFEEBFF220463
:1000230060DED3EB9FEA9EE99DE8C2E78CF0C2F75E
:1000330095F0400CE8CCF8E9CDF9EACEFAEBCFFB2A
:1000430012034C85D0F05804700320D5B3E8047034
:10005300075002B2D502038B92D5EC0460F7E4CCCF
:10006300C0E0C398F8603B94186008400DD0E0FBF3
:10007300020363E4FBFAC9FC8028E830E406E4C920
:10008300FBE4CAFCE830E305E4C9CACBFCE8540747
:100093006010F8C3E913F9EA13FAEB13FBEC13FC52
:1000A300D8F130F52FC3E49CFCEF9BFFEE9AFEEDF5
:1000B30099FDD0E0FBEF4E4D4C701222DB0302039F
:1000C30088EC2CFCEF33FFEE33FEED33FDED30E730
:1000D300EB020363EF2BFFEE3AFEED39FDD0E0FBBD
:1000E30050130BBB000302038BED13FDEE13FEEF66
:0800F30013FFEC13FC02036390
:1000FB00EC4D6011E8497017ED33EC3304600DE4FF
:10010B00FCFFFEFD22E933E8330470F80203811291
:10011B00034C58046009E4CC248150062850090292
:10012B00038B284003020388C0E0EB4A7044B9807C
:10013B0006D0E0FB020377EF4E701CBD8008EBFF8F
:10014B00EAFEE9FD80EBE98DF0A4FEE5F00201E4A7
:10015B00E9CDF9EAFEEBFFEF89F0A4FCE5F0CE89DF
:10016B00F0A42EFFE435F0CD89F0A42DFEE435F09C
:10017B008067EF4E7005BD80D780C3EF8BF0A4ACCA
:10018B00F0EE8BF0A42CFCE435F0F8EF8AF0A42C05
:10019B00E5F038FCE433CB8DF0A42CFCE5F03BF818
:1001AB00EE8AF0A42CFCE5F038F8E433CF89F0A408
:1001BB002CFCE5F038CF3400CE89F0A42FFFE5F00E
:1001CB003EFEE433C98DF0A42EFEE5F039CD8AF066
:1001DB00A42FFFE5F03EFEE43DFD33D0E0FB5007DE
:1001EB000BBB000F02038BEC2CFCEF33FFEE33FE4B
:0601FB00ED33FD02036379
:1002010002038BEC5D046005E8590470030203816D
:1002110012034C580460F6EC4860F2EC7004FDFEE9
:10022100FF22C860DB2481C85009C39860025006D0
:100231000203889850CAF582E9294B4A7005AB82BE
:1002410002037775F0007C1A7880C3EF9BEE9AED7C
:1002510099400DC3EF9BFFEE9AFEED99FDE842F048
:10026100DC23ACF0D0E0FFD0E0FED0E0FDAB82209B
:10027100E7101BEB60BAEC2CFCEF33FFEE33FEED25
:1002810033FD020363E803F830E705C0F075F000C1
:10029100EF2FFFEE33FEED33FD40B830E7C280AA09
:1002A10074F8CC6480CCC86480C8F582046043C310
:1002B100EB9FF5F0EA9E42F0E99D42F0E89C45F0A3
:1002C10060305018E5825FFFE582F42B5582FB50C8
:1002D100210ABA001D09B90019088016E5825BFBE5
:1002E100E582F42F5582FF50090EBE00050DBD00B9
:1002F100010CC3EB9FF5F0EA9E42F0E99D42F0E864
:0D0301009C45F06007CC4820E701B3EC22DA
:10030E0075F020800E75F010800575F0087D007E6A
:10031E00007F003392D530D503120696EC33401091
:10032E00EF33FFEE33FEED33FDEC33FCD5F0ED2273
:0E033E00E5F0247EA2D513CC92E7CDCEFF22AF
:10073900E508247EF582E43400F583E0050822907B
:10074900007B30070390007EE475F0011206ED028C
:10075900063E2000E97F2ED2008018EF540F249026
:10076900D43440D4FF30040BEF24BFB41A00500333
:100779002461FFE50960021509050CE50C70020505
:100789000B30070E90007BE475F0011206EDEF02C5
:100799000684021F1F7403D2078003E4C207F50809
:1007A90090007B120704E4F509F50BF50CE50960E7
:1007B900077F2012077C80F5750AFFC201C200C2BB
:1007C90002C203C205C206C208120748FF700D30F3
:1007D90007057F0012078DAF0CAE0B22B4255FC24F
:1007E900D5C204120748FF24D0B40A00501A75F084
:1007F9000A780930D50508B6FF0106C6A426F620F1
:10080900D5047002D20380D924CFB41A00EF500462
:10081900C2E5D204020A7FD20180C6D20080C0D2CA
:100829000280BCD2D580BAD20580B47F2012077C61
:100839002002077401B5090040F1120739FF1207B8
:100849007C0207B6D208D2068095120739FB120737
:1008590039FA120739F94A4B7006797D7A0B7BFF11
:1008690020022EE509602A7E008E82758300120619
:100879005760060EEE650A70F0C2D5EBC0E0EAC01B
:10088900E0E9C0E0EE120AE0D0E0F9D0E0FAD0E009
:10089900FB12063EFF60AAEBC0E0EAC0E0E9C0E057
:1008A90012077CD0E02401F9D0E03400FAD0E0FB53
:1008B900E50A0460DCD50AD98087D20280A2120A2F
:1008C900C260F7E50A700104120396A90A600DE5F2
:1008D9000A600914F50A120B6AEF60F3EA30E702BD
:1008E900F404C3995079EAF4250A0430E701E404D1
:1008F900F50A800D120AC260C1EA050A250A120327
:1009090096EA9000AAF030E701E4250A04D50A0422
:1009190020050114120AE0E4C0E0120B6A9000AA53
:10092900E0601320E70714F0120764802204F0D076
:10093900E014C0E07F00120764E50A600712075B54
:10094900150A800B30050312075BD0E00207B6D009
:10095900E00480C4120AC2609EE50A04120396905C
:1009690000AAEAF0E50A2005026001042404120A3B
:01097900E09D
:10097A0074FF04C0E0120B6A120764E50A2005023C
:10098A00600312075BD0E0B50AE87F4512076E9054
:10099A0000AAE07F2B30E7047F2DF404C0E01207A1
:1009AA007CD0E075F00A84C0F0120765D0E0120727
:1009BA00650207B6791080027908C206C208800863
:1009CA00D2D5790A8004790AC2D5E50A047002F5FB
:1009DA000AE4FAFDFEFF120739FC7B082001131214
:1009EA000739FD7B1030000A120739FE120739FF5A
:1009FA007B20EC3382D592D55013C3E43000069F96
:100A0A00FFE49EFEE42001039DFDE49CFCE4CBF898
:100A1A00C201EC700CCFCECDCCE824F8F870F3808C
:100A2A0017C3EF33FFEE33FEED33FDEC33FCEB334C
:100A3A00FB994002FB0FD8E9EB300105F8D0E0C47E
:100A4A0048B201C0E00AEC4D4E4F78207B0070C2DC
:100A5A00EAB50A0040BCC0E0120AE2D0F0D0E020B9
:100A6A000104C4C0E0C4B201C0F0120765D0F0D5D9
:100A7A00F0EB0207B612070D08535309BE580824B3
:100A8A004C08204209C24F09CA4409CA49083943D5
:100A9A0009D05508FD46095D4508C7470B9D500812
:100AAA00282D082C2E084F2B083023084D200B86A2
:100ABA002A07E84800000847E50AB4FF03750A0652
:100ACA00120739FC120739FD120739FE120739FFDE
:100ADA009000A30203D3790AA2D520031430050992
:100AEA00B910020404B9080104A2D5200602500173
:100AFA00042002689202B509005034C0E07F203019
:100B0A0003197F30A20272067205500F120B39C206
:100B1A0002C206C205C2087F30800F300503E9C051
:100B2A00E012077C300503D0E0F9D0E0B509CC30FB
:100B3A0005177F30B9100C12077C7F583004077FE5
:100B4A00788003B9080312077C3002057F2D02075B
:100B5A007C7F202008F87F2B2006F322920280CF88
:100B6A007F00B40700500B24A3F582E43400F58318
:100B7A00E0FF22286E756C6C2900D2011207393009
:100B8A0001F8C201780930D50108F60207E82D50AC
:100B9A004349581207392403B405004001E4900B75
:100BAA00989312076D743A12076DD20375090402FD
:020BBA0009BE72
:101C740002038122EDA2E7D2E7F9EC3340F260F3EC
:101C8400B4FF08ED547F70E802038BF82481C2E0AE
:101C9400C0E0F40428FAC313FCED92E7FD90006958
:101CA4001206B0EEA2E7E9BA7F02C313340094002F
:101CB400FA75F091A4E5F013F494FE8AF0A433E5E8
:101CC400F033248CD313FDE492E7FE7F007C3F7550
:101CD4008302ECC0E0F8EDC0E0F9EEC0E0FAEFC03A
:101CE400E0FB8583F09000691206A485F08312025C
:101CF40004D0E0FBD0E0FAD0E0F9D0E0F812000A1A
:101D0400ED6480FD30E7011CD583C7ED33CC33F897
:0C1D1400D0E0A2E71328C313CC13FD227B
:10034C00E9D2E7C933E833F892D5EDD2E7CD33ECF7
:07035C0033FC5002B2D52270
:10036300EC30E7100FBF000C0EBE00080DBD0004FB
:100373000BEB6014A2D5EB13FCED92E7FD2274FFA7
:10038300FCFDFEFF22E480F8A2D574FF13FC7D8000
:03039300E480EF14
:10039600F920E73624F950037907E4F42402FBE553
:1003A60082158270021583DBF6E024FB501BE960A0
:1003B60014E4F0E582158270021583E004F0B40AB5
:0D03C60008E4F0D9EE7401F00A22C2D5223D
:1003D300ED33EC3392D5FA602AB4FF33EDC2E77BF9
:1003E300FF60067A0379F8E4227A04790120D504C0
:1003F3007A0379FC224E614E002B494E46002D496B
:100403004E4600E47A08F0A3DAFC7B00740722C0AE
:1004130083C082ECC0E0EDC0E0EEC0E0EFC0E0EAF4
:1004230075F010A4CAABF075F04DA42BFBE435F0C6
:10043300FCEA2410FAEB34C5FBEC34D9FCEDC2E73B
:10044300FF75F056A4F42411C5F0F434C58FF0A45D
:100453002AE5F03BE43CF020E714120508D0E0FF66
:10046300D0E0FED0E0FDD0E0FC1202048014F404DE
:10047300120508D0E0FFD0E0FED0E0FDD0E0FC1292
:1004830000FBD082D083E0FAEDD2E7CD33EC332406
:1004930082FBE4C3CF33CFCE33CECD33CD33DBF3C7
:1004A3007B0775F00A846004F0A31B0AE5F0F0A350
:1004B3008FF0740AA4FFACF08EF0740AA42CFEAC87
:1004C300F050010C8DF0740AA42CFDE435F0F0A378
:0504D300DBDE740722CE
:1004D8003F8000004120000042C80000447A00002C
:1004E800461C400047C35000497424004B189680AE
:1004F8004CBEBC205A0E1BCA6753C21C749DC5AEA5
:10050800FB60065407601C2323120536EB54386041
:10051800091205221205311200FBECF8EDF9EEFA8A
:10052800EFCB22EB12053180F1543803241C9004E0
:10053800D8FE93FC0EEE93FD0EEE930ECE93FF22A3
:101DD300021F9BE493A3F8E493A34003F68001F26C
:101DE30008DFF48029E493A3F85407240CC8C33311
:101DF300C4540F4420C8834004F456800146F6DFE0
:101E0300E4800B0102040810204080901EB1E47EA0
:101E1300019360BCA3FF543F30E509541FFEE493D4
:101E2300A360010ECF54C025E060A840B8E493A39B
:101E3300FAE493A3F8E493A3C8C582C8CAC583CAC6
:101E4300F0A3C8C582C8CAC583CADFE9DEE780BE7E
:011EF50000EC
:10054800E709F608DFFA8046E709F208DFFA803E95
:1005580088828C83E709F0A3DFFA8032E309F60882
:10056800DFFA8078E309F208DFFA807088828C83EA
:10057800E309F0A3DFFA806489828A83E0A3F6089E
:10058800DFFA805889828A83E0A3F208DFFA804C78
:1005980080D280FA80C680D4806980F2803380104F
:1005A80080A680EA809A80A880DA80E280CA8033B8
:1005B80089828A83ECFAE493A3C8C582C8CCC58330
:1005C800CCF0A3C8C582C8CCC583CCDFE9DEE78000
:1005D8000D89828A83E493A3F608DFF9ECFAA9F07F
:1005E800EDFB2289828A83ECFAE0A3C8C582C8CCD5
:1005F800C583CCF0A3C8C582C8CCC583CCDFEADEEE
:10060800E880DB89828A83E493A3F208DFF980CC4F
:1006180088F0EF60010E4E60C388F0ED2402B40448
:100628000050B9F582EB2402B4040050AF232345EF
:0606380082239005987377
:10063E00BB010689828A83E0225002E722BBFE02BA
:09064E00E32289828A83E49322ED
:10065700BB010CE58229F582E5833AF583E0225058
:1006670006E92582F8E622BBFE06E92582F8E222A2
:0D067700E58229F582E5833AF583E49322BC
:10068400BB010689828A83F0225002F722BBFE0155
:02069400F3224F
:0E069600C3E49FFFE49EFEE49DFDE49CFC2275
:0C06A400E0FCA3E0FDA3E0FEA3E0FF22C9
:0C06B000ECF0A3EDF0A3EEF0A3EFF022BD
:1006BC00A8828583F0D083D0821206D31206D3127F
:1006CC0006D31206D3E473E493A3C583C5F0C583A4
:1006DC00C8C582C8F0A3C583C5F0C583C8C582C888
:0106EC0022EB
:1006ED00F8E0FBA3A3E0F925F0F0E5821582700296
:0706FD001583E0FA38F0223A
:09070400EBF0A3EAF0A3E9F022F6
:10070D00D083D082F8E4937012740193700DA3A37B
:10071D0093F8740193F5828883E47374029368608F
:06072D00EFA3A3A380DF8F
:060733008A838982E47351
:101F1F00EFB40A07740D121F2A740A309811A8998A
:101F2F00B8130CC2983098FDA899C298B811F63022
:071F3F0099FDC299F59922FA
:00000001FF
